:020000040800F2
:10000000000003203D0300088D0300088D03000855
:100010008D0300088D0300088D0300080000000018
:100020000000000000000000000000008D03000838
:1000300000000000000000008D0300088D03000890
:100040008D0300088D0300088D0300088D03000850
:100050008D0300088D0300088D0300088D03000840
:100060008D0300088D0300088D0300088D03000830
:100070008D0300088D0300088D0300088D03000820
:100080008D0300088D0300088D0300088D03000810
:100090008D0300088D0300088D0300088D03000800
:1000A0008D0300088D0300088D0300088D030008F0
:1000B0008D0300088D0300088D0300088D030008E0
:1000C0008D0300088D0300088D0300088D030008D0
:1000D0008D0300088D0300088D0300088D030008C0
:1000E0008D0300088D0300088D0300088D030008B0
:1000F0008D0300088D0300088D0300088D030008A0
:100100008D0300088D0300088D0300088D0300088F
:100110008D0300088D0300088D0300088D0300087F
:100120008D0300088D0300088D0300088D0300086F
:100130008D0300088D0300088D0300088D0300085F
:100140008D0300088D0300088D0300088D0300084F
:100150008D0300088D0300088D0300088D0300083F
:100160008D0300088D0300088D0300088D0300082F
:100170008D0300088D0300088D0300088D0300081F
:100180008D0300088D0300088D0300088D0300080F
:100190008D0300088D0300088D0300088D030008FF
:0C01A0008D0300088D0300088D0300088B
:1001AC000348044B834202D0034B03B118477047FA
:1001BC000000002000000020000000000548064B55
:1001CC001B1AD90F01EBA301491002D0034B03B149
:1001DC0018477047000000200000002000000000BD
:1001EC0010B5064C237843B9FFF7DAFF044B13B173
:1001FC000448AFF300800123237010BD00000020E1
:10020C00000000005C04000808B5044B1BB1044955
:10021C000448AFF30080BDE80840CFE700000000C1
:10022C00040000205C04000870B50F4B0F4DAB426E
:10023C00A3EB050607D0B610002455F8043B013497
:10024C009847A642F9D800F003F9094D094B5E1BFB
:10025C00AB424FEAA60606D0002455F8043B013405
:10026C009847A642F9D870BD7404000874040008BD
:10027C00740400087C040008002301461A46184642
:10028C0000F014B838B5074D074C2C1BA41005D042
:10029C00013C55F8043D9847002CF9D1BDE8384095
:1002AC0000F0DCB8800400087C04000870B4164D23
:1002BC002C681CB365681F2D23DC38B9AB1C0135C9
:1002CC00656044F82310002070BC704704EB850C6B
:1002DC000228CCF88820D4F888614FF0010202FA89
:1002EC0005F246EA0206C4F88861CCF80831E5D17B
:1002FC00D4F88C311343C4F88C31DFE7034C2C60F9
:10030C00D8E74FF0FF30DFE71C0000202000002072
:10031C00024B13B10248FFF7AFBF7047000000005B
:10032C009102000808B500F02DF800F053F8FEE734
:10033C000D488546AFF300800C480D490D4A00234B
:10034C0002E0D458C4500433C4188C42F9D30A4A7E
:10035C000A4C002301E013600432A242FBD3FFF7E6
:10036C0063FFFFF7DFFFFEE7000003200000002023
:10037C00000000208004000800000020B0010020D4
:10038C00FEE7000080B400AF104B1B680F4A43F42B
:10039C008033136000BF0D4B1B6803F40033002B3C
:1003AC00F9D00B4B1B6823F00303094A43F00103FC
:1003BC00136000BF064B1B6803F00C03042BF9D130
:1003CC0000BF00BFBD465DF8047B7047003802409B
:1003DC000838024080B400AF194B1B68184A43F030
:1003EC0001031360174B1B68164A23F44033136048
:1003FC00144B1B68134A43F400331360124B1B68F5
:10040C00114A23F00F031360104B1B680F4A23F49F
:10041C00C00313600D4B1B680C4A43F4800313603C
:10042C000A4B1B68094A23F0E0631360074B074A29
:10043C001B68136000BFBD465DF8047B704700BFAE
:10044C0030380240000002402400024008380240CC
:10045C00F8B500BFF8BC08BC9E467047F8B500BFA5
:08046C00F8BC08BC9E46704775
:080474001D0300081502000839
:04047C00ED01000886
:040000050800033DAF
:00000001FF
